{
  "_format": "hh-sol-artifact-1",
  "contractName": "auction",
  "sourceName": "contracts/auction.sol",
  "abi": [
    {
      "inputs": [
        {
          "internalType": "address payable",
          "name": "_bidder",
          "type": "address"
        },
        {
          "internalType": "uint256",
          "name": "bidtime",
          "type": "uint256"
        }
      ],
      "stateMutability": "nonpayable",
      "type": "constructor"
    },
    {
      "anonymous": false,
      "inputs": [
        {
          "indexed": true,
          "internalType": "address",
          "name": "winner",
          "type": "address"
        },
        {
          "indexed": true,
          "internalType": "uint256",
          "name": "amount",
          "type": "uint256"
        }
      ],
      "name": "auctionEnd",
      "type": "event"
    },
    {
      "anonymous": false,
      "inputs": [
        {
          "indexed": true,
          "internalType": "address",
          "name": "bidder",
          "type": "address"
        },
        {
          "indexed": true,
          "internalType": "uint256",
          "name": "amount",
          "type": "uint256"
        }
      ],
      "name": "highestbidincrease",
      "type": "event"
    },
    {
      "inputs": [],
      "name": "auctionEndtime",
      "outputs": [
        {
          "internalType": "uint256",
          "name": "",
          "type": "uint256"
        }
      ],
      "stateMutability": "view",
      "type": "function"
    },
    {
      "inputs": [],
      "name": "autionEnd",
      "outputs": [
        {
          "internalType": "bool",
          "name": "",
          "type": "bool"
        }
      ],
      "stateMutability": "nonpayable",
      "type": "function"
    },
    {
      "inputs": [],
      "name": "bidAuction",
      "outputs": [],
      "stateMutability": "payable",
      "type": "function"
    },
    {
      "inputs": [],
      "name": "bidder",
      "outputs": [
        {
          "internalType": "address payable",
          "name": "",
          "type": "address"
        }
      ],
      "stateMutability": "view",
      "type": "function"
    },
    {
      "inputs": [],
      "name": "checkBid",
      "outputs": [
        {
          "internalType": "uint256",
          "name": "",
          "type": "uint256"
        }
      ],
      "stateMutability": "view",
      "type": "function"
    },
    {
      "inputs": [],
      "name": "highestbid",
      "outputs": [
        {
          "internalType": "uint256",
          "name": "",
          "type": "uint256"
        }
      ],
      "stateMutability": "view",
      "type": "function"
    },
    {
      "inputs": [],
      "name": "highestbidder",
      "outputs": [
        {
          "internalType": "address",
          "name": "",
          "type": "address"
        }
      ],
      "stateMutability": "view",
      "type": "function"
    },
    {
      "inputs": [],
      "name": "owner",
      "outputs": [
        {
          "internalType": "address",
          "name": "",
          "type": "address"
        }
      ],
      "stateMutability": "view",
      "type": "function"
    },
    {
      "inputs": [
        {
          "internalType": "address",
          "name": "",
          "type": "address"
        }
      ],
      "name": "pendingReturns",
      "outputs": [
        {
          "internalType": "uint256",
          "name": "",
          "type": "uint256"
        }
      ],
      "stateMutability": "view",
      "type": "function"
    },
    {
      "inputs": [],
      "name": "withdraw",
      "outputs": [
        {
          "internalType": "bool",
          "name": "",
          "type": "bool"
        }
      ],
      "stateMutability": "nonpayable",
      "type": "function"
    },
    {
      "stateMutability": "payable",
      "type": "receive"
    }
  ],
  "bytecode": "0x60806040526000600460006101000a81548160ff0219169083151502179055503480156200002c57600080fd5b5060405162000ee638038062000ee68339818101604052810190620000529190620001a2565b33600460016101000a81548173ffffffffffffffffffffffffffffffffffffffff021916908373ffffffffffffffffffffffffffffffffffffffff160217905550816000806101000a81548173ffffffffffffffffffffffffffffffffffffffff021916908373ffffffffffffffffffffffffffffffffffffffff160217905550603c81620000e2919062000218565b42620000ef919062000279565b6003819055505050620002d6565b600080fd5b600073ffffffffffffffffffffffffffffffffffffffff82169050919050565b60006200012f8262000102565b9050919050565b620001418162000122565b81146200014d57600080fd5b50565b600081519050620001618162000136565b92915050565b6000819050919050565b6200017c8162000167565b81146200018857600080fd5b50565b6000815190506200019c8162000171565b92915050565b60008060408385031215620001bc57620001bb620000fd565b5b6000620001cc8582860162000150565b9250506020620001df858286016200018b565b9150509250929050565b7f4e487b7100000000000000000000000000000000000000000000000000000000600052601160045260246000fd5b6000620002258262000167565b9150620002328362000167565b9250817fffffffffffffffffffffffffffffffffffffffffffffffffffffffffffffffff04831182151516156200026e576200026d620001e9565b5b828202905092915050565b6000620002868262000167565b9150620002938362000167565b9250827fffffffffffffffffffffffffffffffffffffffffffffffffffffffffffffffff03821115620002cb57620002ca620001e9565b5b828201905092915050565b610c0080620002e66000396000f3fe6080604052600436106100955760003560e01c80635b431e3a116100595780635b431e3a1461018a5780638da5cb5b146101b5578063b2031bee146101e0578063dcbfb0ff146101ea578063f496d882146102155761009c565b80631f747701146100a15780632664e13d146100cc57806326b387bb146100f75780633ad08463146101345780633ccfd60b1461015f5761009c565b3661009c57005b600080fd5b3480156100ad57600080fd5b506100b6610240565b6040516100c391906107f7565b60405180910390f35b3480156100d857600080fd5b506100e1610287565b6040516100ee919061082d565b60405180910390f35b34801561010357600080fd5b5061011e600480360381019061011991906108ab565b61045c565b60405161012b91906107f7565b60405180910390f35b34801561014057600080fd5b50610149610474565b60405161015691906107f7565b60405180910390f35b34801561016b57600080fd5b5061017461047a565b604051610181919061082d565b60405180910390f35b34801561019657600080fd5b5061019f6105d8565b6040516101ac91906107f7565b60405180910390f35b3480156101c157600080fd5b506101ca6105de565b6040516101d791906108e7565b60405180910390f35b6101e8610604565b005b3480156101f657600080fd5b506101ff610794565b60405161020c91906108e7565b60405180910390f35b34801561022157600080fd5b5061022a6107ba565b6040516102379190610923565b60405180910390f35b6000600560003373ffffffffffffffffffffffffffffffffffffffff1673ffffffffffffffffffffffffffffffffffffffff16815260200190815260200160002054905090565b60003373ffffffffffffffffffffffffffffffffffffffff16600460019054906101000a9050505060035442116102f3576040517f08c379a00000000000000000000000000000000000000000000000000000000081526004016102ea9061099b565b60405180910390fd5b600460009054906101000a900460ff1615610343576040517f08c379a000000000000000000000000000000000000000000000000000000000815260040161033a90610a07565b60405180910390fd5b6001600460006101000a81548160ff021916908315150217905550600254600160009054906101000a900473ffffffffffffffffffffffffffffffffffffffff1673ffffffffffffffffffffffffffffffffffffffff167f1dcf249fb08d36df75cf57cfba0627651112fa2bc684495d8d15d1ce8ec4029060405160405180910390a360008060009054906101000a900473ffffffffffffffffffffffffffffffffffffffff1673ffffffffffffffffffffffffffffffffffffffff1660025460405161040f90610a58565b60006040518083038185875af1925050503d806000811461044c576040519150601f19603f3d011682016040523d82523d6000602084013e610451565b606091505b505090508091505090565b60056020528060005260406000206000915090505481565b60025481565b600080600560003373ffffffffffffffffffffffffffffffffffffffff1673ffffffffffffffffffffffffffffffffffffffff16815260200190815260200160002054905060008111156105cf576000600560003373ffffffffffffffffffffffffffffffffffffffff1673ffffffffffffffffffffffffffffffffffffffff1681526020019081526020016000208190555060003373ffffffffffffffffffffffffffffffffffffffff168260405161053390610a58565b60006040518083038185875af1925050503d8060008114610570576040519150601f19603f3d011682016040523d82523d6000602084013e610575565b606091505b50509050806105cd5781600560003373ffffffffffffffffffffffffffffffffffffffff1673ffffffffffffffffffffffffffffffffffffffff168152602001908152602001600020819055506000925050506105d5565b505b60019150505b90565b60035481565b600460019054906101000a900473ffffffffffffffffffffffffffffffffffffffff1681565b6003544210610648576040517f08c379a000000000000000000000000000000000000000000000000000000000815260040161063f90610ab9565b60405180910390fd5b600254341161068c576040517f08c379a000000000000000000000000000000000000000000000000000000000815260040161068390610b25565b60405180910390fd5b60025460056000600160009054906101000a900473ffffffffffffffffffffffffffffffffffffffff1673ffffffffffffffffffffffffffffffffffffffff1673ffffffffffffffffffffffffffffffffffffffff16815260200190815260200160002060008282546106ff9190610b74565b9250508190555033600160006101000a81548173ffffffffffffffffffffffffffffffffffffffff021916908373ffffffffffffffffffffffffffffffffffffffff16021790555034600281905550343373ffffffffffffffffffffffffffffffffffffffff167f0e128b341b7970a5f801f900c4f9e24f98b6719a62f1a55bdda99198c762223960405160405180910390a3565b600160009054906101000a900473ffffffffffffffffffffffffffffffffffffffff1681565b60008054906101000a900473ffffffffffffffffffffffffffffffffffffffff1681565b6000819050919050565b6107f1816107de565b82525050565b600060208201905061080c60008301846107e8565b92915050565b60008115159050919050565b61082781610812565b82525050565b6000602082019050610842600083018461081e565b92915050565b600080fd5b600073ffffffffffffffffffffffffffffffffffffffff82169050919050565b60006108788261084d565b9050919050565b6108888161086d565b811461089357600080fd5b50565b6000813590506108a58161087f565b92915050565b6000602082840312156108c1576108c0610848565b5b60006108cf84828501610896565b91505092915050565b6108e18161086d565b82525050565b60006020820190506108fc60008301846108d8565b92915050565b600061090d8261084d565b9050919050565b61091d81610902565b82525050565b60006020820190506109386000830184610914565b92915050565b600082825260208201905092915050565b7f61756374696f6e206861736e277420656e642100000000000000000000000000600082015250565b600061098560138361093e565b91506109908261094f565b602082019050919050565b600060208201905081810360008301526109b481610978565b9050919050565b7f686173206265656e2063616c6c65640000000000000000000000000000000000600082015250565b60006109f1600f8361093e565b91506109fc826109bb565b602082019050919050565b60006020820190508181036000830152610a20816109e4565b9050919050565b600081905092915050565b50565b6000610a42600083610a27565b9150610a4d82610a32565b600082019050919050565b6000610a6382610a35565b9150819050919050565b7f61756374696f6e2068617320656e6465642e2e2e000000000000000000000000600082015250565b6000610aa360148361093e565b9150610aae82610a6d565b602082019050919050565b60006020820190508181036000830152610ad281610a96565b9050919050565b7f796f75206e65656420656e6f7567682066756e64732100000000000000000000600082015250565b6000610b0f60168361093e565b9150610b1a82610ad9565b602082019050919050565b60006020820190508181036000830152610b3e81610b02565b9050919050565b7f4e487b7100000000000000000000000000000000000000000000000000000000600052601160045260246000fd5b6000610b7f826107de565b9150610b8a836107de565b9250827fffffffffffffffffffffffffffffffffffffffffffffffffffffffffffffffff03821115610bbf57610bbe610b45565b5b82820190509291505056fea2646970667358221220a380546679a82a235fb1279240bc50510a2126ccb4fd3278def3cde33bb154d664736f6c63430008090033",
  "linkReferences": {},
  "deployedLinkReferences": {}
}